:100000000C942A000C943F000C943F000C943F0089
:100010000C943F000C943F000C943F000C943F0064
:100020000C943F000C943F000C943F000C943F0054
:100030000C943F000C943F000C943F000C943F0044
:100040000C943F000C943F000C943F000C943F0034
:100050000C943F0011241FBECFE5D8E0DEBFCDBF1A
:1000600010E0A0E6B0E0E2EFF1E002C005900D92F2
:10007000AA36B107D9F70E9468000C94F7000C94D7
:1000800000008A98089580B382FB882780F908953C
:10009000A29A08952AE0DC01A05ABF4FFB01E05A62
:1000A000FF4FAF9AAE989C919BBB8FE39CE9019761
:1000B000F1F700C00000AF98AE9A90819BBB8FE330
:1000C0009CE90197F1F700C00000215051F7089515
:1000D0000E948C008FEF8ABB80E184BBA59AA69A10
:1000E000A79A00E010E00FC0BE01C8010E944A00BC
:1000F0000E948C002196CA30D105B1F70F5F1F4FC7
:100100000A30110519F0C0E0D0E0EECFAF9A0E949E
:1001100099000E948C00FDCF0E9448000E9441007F
:100120000E944300811104C0AF98AE980E946800FD
:1001300008951F93CF93DF93C0E0D0E012E014BB8B
:10014000AD9AA89A2FEF8EE994E22150804090401A
:10015000E1F700C00000AD98A8980E948C002FEF36
:1001600081EE94E0215080409040E1F700C0000013
:100170000E948C00AD9AA99A2FEF8EE994E221504B
:1001800080409040E1F700C00000AD98A9980E941F
:100190008C002FEF84E39CE0215080409040E1F7F9
:1001A00000C000000E948C00AD9AAA9A2FEF81EE49
:1001B00094E0215080409040E1F700C00000AD98ED
:1001C000AA980E948C002FEF84E39CE0215080408D
:1001D0009040E1F700C000000E948C002196C530DD
:1001E000D10509F0ACCFDF91CF911F910895F8941C
:0201F000FFCF3F
:0A01F2007E0CB69ECCDAFA0EFECEAB
:00000001FF
